{
  "contractName": "Publication",
  "abi": [
    {
      "constant": true,
      "inputs": [],
      "name": "seqId",
      "outputs": [
        {
          "name": "",
          "type": "uint256"
        }
      ],
      "payable": false,
      "stateMutability": "view",
      "type": "function"
    },
    {
      "inputs": [],
      "payable": false,
      "stateMutability": "nonpayable",
      "type": "constructor"
    },
    {
      "anonymous": false,
      "inputs": [
        {
          "indexed": true,
          "name": "id",
          "type": "uint256"
        }
      ],
      "name": "_PublicationCreated",
      "type": "event"
    },
    {
      "anonymous": false,
      "inputs": [
        {
          "indexed": true,
          "name": "id",
          "type": "uint256"
        }
      ],
      "name": "_PublicationUpdated",
      "type": "event"
    },
    {
      "constant": false,
      "inputs": [
        {
          "name": "newOwner",
          "type": "address"
        }
      ],
      "name": "changeOwner",
      "outputs": [],
      "payable": false,
      "stateMutability": "nonpayable",
      "type": "function"
    },
    {
      "constant": false,
      "inputs": [
        {
          "name": "ipfsHash",
          "type": "string"
        }
      ],
      "name": "createPublication",
      "outputs": [],
      "payable": false,
      "stateMutability": "nonpayable",
      "type": "function"
    },
    {
      "constant": false,
      "inputs": [
        {
          "name": "id",
          "type": "uint256"
        },
        {
          "name": "ipfsHash",
          "type": "string"
        }
      ],
      "name": "editPublication",
      "outputs": [],
      "payable": false,
      "stateMutability": "nonpayable",
      "type": "function"
    },
    {
      "constant": true,
      "inputs": [
        {
          "name": "id",
          "type": "uint256"
        }
      ],
      "name": "getPublication",
      "outputs": [
        {
          "name": "",
          "type": "uint256"
        },
        {
          "name": "",
          "type": "address"
        },
        {
          "name": "",
          "type": "string"
        },
        {
          "name": "",
          "type": "address[]"
        }
      ],
      "payable": false,
      "stateMutability": "view",
      "type": "function"
    },
    {
      "constant": false,
      "inputs": [
        {
          "name": "seqId",
          "type": "uint256"
        }
      ],
      "name": "subscribe",
      "outputs": [],
      "payable": true,
      "stateMutability": "payable",
      "type": "function"
    }
  ],
  "bytecode": "0x6080604052600060015534801561001557600080fd5b5033600260006101000a81548173ffffffffffffffffffffffffffffffffffffffff021916908373ffffffffffffffffffffffffffffffffffffffff160217905550610ac2806100666000396000f300608060405260043610610078576000357c0100000000000000000000000000000000000000000000000000000000900463ffffffff1680630f574ba71461007d57806338ecb7071461009d5780633a979f1d146100c8578063a564e83c1461010d578063a6f9dae114610235578063ab31a03314610278575b600080fd5b61009b600480360381019080803590602001909291905050506102b3565b005b3480156100a957600080fd5b506100b26103d7565b6040518082815260200191505060405180910390f35b3480156100d457600080fd5b5061010b600480360381019080803590602001909291908035906020019082018035906020019190919293919293905050506103dd565b005b34801561011957600080fd5b50610138600480360381019080803590602001909291905050506104ae565b604051808581526020018473ffffffffffffffffffffffffffffffffffffffff1673ffffffffffffffffffffffffffffffffffffffff1681526020018060200180602001838103835285818151815260200191508051906020019080838360005b838110156101b4578082015181840152602081019050610199565b50505050905090810190601f1680156101e15780820380516001836020036101000a031916815260200191505b50838103825284818151815260200191508051906020019060200280838360005b8381101561021d578082015181840152602081019050610202565b50505050905001965050505050505060405180910390f35b34801561024157600080fd5b50610276600480360381019080803573ffffffffffffffffffffffffffffffffffffffff169060200190929190505050610630565b005b34801561028457600080fd5b506102b16004803603810190808035906020019082018035906020019190919293919293905050506106cb565b005b662386f26fc10000341115156102c857600080fd5b6000808281526020019081526020016000206003013390806001815401808255809150509060018203906000526020600020016000909192909190916101000a81548173ffffffffffffffffffffffffffffffffffffffff021916908373ffffffffffffffffffffffffffffffffffffffff1602179055505060008082815260200190815260200160002060010160009054906101000a900473ffffffffffffffffffffffffffffffffffffffff1673ffffffffffffffffffffffffffffffffffffffff166108fc3073ffffffffffffffffffffffffffffffffffffffff16319081150290604051600060405180830381858888f193505050501580156103d3573d6000803e3d6000fd5b5050565b60015481565b60008033915060008086815260200190815260200160002090508173ffffffffffffffffffffffffffffffffffffffff168160010160009054906101000a900473ffffffffffffffffffffffffffffffffffffffff1673ffffffffffffffffffffffffffffffffffffffff1614151561045557600080fd5b838360008088815260200190815260200160002060020191906104799291906108a4565b50847fa5177c889990349ca5ca0561ace62a75b3177ae98b994a1a795377097ccc585a60405160405180910390a25050505050565b6000806060806000806000878152602001908152602001600020905080600001548160010160009054906101000a900473ffffffffffffffffffffffffffffffffffffffff168260020183600301818054600181600116156101000203166002900480601f0160208091040260200160405190810160405280929190818152602001828054600181600116156101000203166002900480156105915780601f1061056657610100808354040283529160200191610591565b820191906000526020600020905b81548152906001019060200180831161057457829003601f168201915b505050505091508080548060200260200160405190810160405280929190818152602001828054801561061957602002820191906000526020600020905b8160009054906101000a900473ffffffffffffffffffffffffffffffffffffffff1673ffffffffffffffffffffffffffffffffffffffff16815260200190600101908083116105cf575b505050505090509450945094509450509193509193565b600260009054906101000a900473ffffffffffffffffffffffffffffffffffffffff1673ffffffffffffffffffffffffffffffffffffffff163373ffffffffffffffffffffffffffffffffffffffff1614156106c85780600260006101000a81548173ffffffffffffffffffffffffffffffffffffffff021916908373ffffffffffffffffffffffffffffffffffffffff1602179055505b50565b600080339150600180540160018190555060806040519081016040528060015481526020018373ffffffffffffffffffffffffffffffffffffffff16815260200185858080601f0160208091040260200160405190810160405280939291908181526020018383808284378201915050505050508152602001828054806020026020016040519081016040528092919081815260200182805480156107c557602002820191906000526020600020905b8160009054906101000a900473ffffffffffffffffffffffffffffffffffffffff1673ffffffffffffffffffffffffffffffffffffffff168152602001906001019080831161077b575b505050505081525060008060015481526020019081526020016000206000820151816000015560208201518160010160006101000a81548173ffffffffffffffffffffffffffffffffffffffff021916908373ffffffffffffffffffffffffffffffffffffffff160217905550604082015181600201908051906020019061084e929190610924565b50606082015181600301908051906020019061086b9291906109a4565b509050506001547fa06624161c769982df32c31ca55a88e25a02af89824a6fc026cf6a292eac7c3360405160405180910390a250505050565b828054600181600116156101000203166002900490600052602060002090601f016020900481019282601f106108e557803560ff1916838001178555610913565b82800160010185558215610913579182015b828111156109125782358255916020019190600101906108f7565b5b5090506109209190610a2e565b5090565b828054600181600116156101000203166002900490600052602060002090601f016020900481019282601f1061096557805160ff1916838001178555610993565b82800160010185558215610993579182015b82811115610992578251825591602001919060010190610977565b5b5090506109a09190610a2e565b5090565b828054828255906000526020600020908101928215610a1d579160200282015b82811115610a1c5782518260006101000a81548173ffffffffffffffffffffffffffffffffffffffff021916908373ffffffffffffffffffffffffffffffffffffffff160217905550916020019190600101906109c4565b5b509050610a2a9190610a53565b5090565b610a5091905b80821115610a4c576000816000905550600101610a34565b5090565b90565b610a9391905b80821115610a8f57600081816101000a81549073ffffffffffffffffffffffffffffffffffffffff021916905550600101610a59565b5090565b905600a165627a7a72305820acc4e24262a23f63d285bb4bc96c0328381a7c85b79676855c625dab1cd71edb0029",
  "source": "pragma solidity ^0.4.4;\n\ncontract Publication {\n    /**\n     * NOTES\n     *\n     * \"author\" is the person creating Publication.\n     */\n\n    /**\n      * Publication Events\n      */\n    event _PublicationCreated(uint indexed id);\n    event _PublicationUpdated(uint indexed id);\n\n    struct PublicationPost {\n      uint id;\n      address author;\n      string ipfsHash;\n      address[] mySubscriber;\n    }\n\n    /**\n      * publications map\n      *\n      * structure\n      * publications[author][id] => ipfs hash\n      *\n      * example\n      * publications[0x123...abc][1] => Qm123...abc\n      */\n    mapping (uint => PublicationPost) publications;\n\n    /**\n      * Latest sequential meetup ID\n      */\n    uint public seqId = 0;\n\n    /**\n      * Contract owner\n      */\n    address owner;\n\n    /**\n      * Constructor\n      */\n    function Publication() {\n        owner = msg.sender;\n    }\n\n    /**\n      * Change contract owner\n      */\n    function changeOwner(address newOwner) external {\n        if (msg.sender == owner) {\n            owner = newOwner;\n        }\n    }\n\n    /**\n      * Create a new Publication  delete ?= new address[](0)\n      */\n    function createPublication(\n      string ipfsHash\n    ) external {\n        address author = msg.sender;\n        address[]  mySubscriber;\n        seqId = seqId + 1;\n        publications[seqId] = PublicationPost(seqId, author, ipfsHash, mySubscriber);\n\n        _PublicationCreated(seqId);\n    }\n\n    /**\n      * Edit ipfs hash of a post\n      */\n    function editPublication(\n        uint id,\n        string ipfsHash\n    ) external {\n        address author = msg.sender;\n\n        PublicationPost storage meetup = publications[id];\n        require(meetup.author == author);\n        publications[id].ipfsHash = ipfsHash;\n\n        _PublicationUpdated(id);\n    }\n\n    /**\n      * Retrieve a meetup post by ID\n      */\n    function getPublication(uint id) external constant returns (uint, address, string, address[]) {\n      PublicationPost storage publication = publications[id];\n\n      return (publication.id, publication.author, publication.ipfsHash, publication.mySubscriber);\n    }\n\n     function subscribe(uint seqId ) public payable {\n        require(msg.value > .01 ether);\n        publications[seqId].mySubscriber.push(msg.sender);\n        publications[seqId].author.transfer(this.balance);\n    }\n}",
  "sourcePath": "/Users/yuzhu/git/Wechain/Wechain/wechain-demo/contracts/Publication.sol",
  "compiler": {
    "name": "solc",
    "version": "0.4.23+commit.124ca40d.Emscripten.clang"
  },
  "schemaVersion": "2.0.0",
  "updatedAt": "2018-05-19T11:38:34.652Z"
}